:040000000CEF00F011
:10000800FACF11F2FBCF12F2E9CF13F20BED0DF09C
:1000180000EEBDF0460EF66E100EF76E10EEB4F060
:1000280025EC00F000EE00F010EEBDF01EEC00F044
:1000380091EF0CF0EE6AE550E150FCE1E250FAE194
:1000480012000900F5CFEEFFE550E150FAE1E25069
:04005800F8E11200B9
:101000000048656C6C6F20416C6C202020202020F3
:10101000200048492057656C636F6D65202E2E2E89
:101020002E2E00204B455920202041444320436F61
:10103000756E7400202020202020202020202020D9
:1010400020202020000000803E00003F00403F00A4
:10105000803F00A03F00C03F00E03F000040002074
:101060004000404000604000804000A04000C04080
:1010700000E040000041002041004041006041008C
:10108000804100A04100C04100E04100004200203A
:101090004200404200604200804200A04200C04244
:1010A00000E0420000430020430040430060430052
:1010B00080433030303030303030000000000000ED
:1010C000001F0000000000001F1F00000000001FA4
:1010D0001F1F000000001F1F1F1F0000001F1F1FF9
:1010E0001F1F00001F1F1F1F1F1F001F1F1F1F1F6D
:1010F0001F1F1F1F1F1F1F1F1F1F8C9207C208F2D9
:101100000201083B0F0E08170F0E0201081702011B
:10111000085100010001906F0001916B0001000176
:1011200090A101D089820001000190B101D0899283
:10113000020E0001000190150201086F000E00016F
:10114000000191150201096FD890020109310201D5
:101150000B6F0201083102010A6F02010A31D8A0A7
:1011600001D08984D8B001D08994040E0001000117
:1011700090150201086F000E000100019115020197
:10118000096FD890020109330833D890020109335E
:10119000083302010831D8A001D08986D8B001D027
:1011A0008996080E0001000190150201086F000EDB
:1011B0000001000191150201096FD8900201093365
:1011C0000833D890020109330833D890020109335B
:1011D000083302010831D8A001D08988D8B001D0E5
:1011E0008998898A0A0E020102010C6F000E020121
:1011F0000D6F76EC0EF0899A07C208F20F0E02010D
:1012000008170201085100010001906F0001916B65
:101210000001000190A101D089820001000190B17C
:1012200001D08992020E0001000190150201086FA1
:10123000000E0001000191150201096FD890020112
:10124000093102010B6F0201083102010A6F02012C
:101250000A31D8A001D08984D8B001D08994040E75
:101260000001000190150201086F000E000100014D
:1012700091150201096FD890020109330833D89003
:1012800002010933083302010831D8A001D0898650
:10129000D8B001D08996080E000100019015020116
:1012A000086F000E0001000191150201096FD8902E
:1012B000020109330833D890020109330833D8906A
:1012C00002010933083302010831D8A001D089880E
:1012D000D8B001D08998898A0A0E020102010C6FE8
:1012E000000E02010D6F76EC0EF0899A050E0201D8
:1012F00002010C6F000E02010D6F76EC0EF0120071
:101300008C8207C208F20201083B0F0E08170F0E6D
:10131000020108170201085100010001906F00014D
:10132000916B0001000190A101D0898200010001B0
:1013300090B101D08992020E0001000190150201C6
:10134000086F000E0001000191150201096FD8908D
:101350000201093102010B6F0201083102010A6F1B
:1013600002010A31D8A001D08984D8B001D0899473
:10137000040E0001000190150201086F000E00012B
:10138000000191150201096FD89002010933083359
:10139000D89002010933083302010831D8A001D0E6
:1013A0008986D8B001D08996080E000100019015F9
:1013B0000201086F000E0001000191150201096F82
:1013C000D890020109330833D89002010933083359
:1013D000D89002010933083302010831D8A001D0A6
:1013E0008988D8B001D08998898A0A0E0201020141
:1013F0000C6F000E02010D6F76EC0EF0899A07C299
:1014000008F20F0E02010817020108510001000145
:10141000906F0001916B0001000190A101D08982C1
:101420000001000190B101D08992020E000100017B
:1014300090150201086F000E0001000191150201D4
:10144000096FD8900201093102010B6F02010831C6
:1014500002010A6F02010A31D8A001D08984D8B0F4
:1014600001D08994040E0001000190150201086F5B
:10147000000E0001000191150201096FD8900201D0
:1014800009330833D89002010933083302010831C7
:10149000D8A001D08986D8B001D08996080E000165
:1014A000000190150201086F000E00010001911566
:1014B0000201096FD890020109330833D890020164
:1014C00009330833D8900201093308330201083187
:1014D000D8A001D08988D8B001D08998898A0A0E0D
:1014E000020102010C6F000E02010D6F76EC0EF08E
:1014F000899A050E020102010C6F000E02010D6FA8
:1015000076EC0EF01200640E020102010C6F000E68
:1015100002010D6F76EC0EF00201016F030E020165
:101520000201076F020101517DEC08F0FA0E020181
:1015300002010C6F000E02010D6F76EC0EF002013D
:10154000016F030E02010201076F020101517DECE0
:1015500008F0FA0E020102010C6F000E02010D6F7D
:1015600076EC0EF00201016F030E02010201076F1B
:10157000020101517DEC08F0FA0E020102010C6F2C
:10158000000E02010D6F76EC0EF00201016F020EEB
:1015900002010201076F020101517DEC08F0FA0E11
:1015A000020102010C6F000E02010D6F76EC0EF0CD
:1015B0000201016F280E02010201076F02010151B1
:1015C0007DEC08F0FA0E020102010C6F000E020120
:1015D0000D6F76EC0EF00201016F280E0201020180
:1015E000076F020101517DEC08F0FA0E02010201C1
:1015F0000C6F000E02010D6F76EC0EF00201016F10
:10160000280E02010201076F020101517DEC08F072
:10161000FA0E020102010C6F000E02010D6F76EC52
:101620000EF00201016F0C0E02010201076F0201B0
:1016300001517DEC08F0FA0E020102010C6F000E60
:1016400002010D6F76EC0EF00201016F060E020131
:101650000201076F020101517DEC08F0FA0E020150
:1016600002010C6F000E02010D6F76EC0EF002010C
:10167000016F010E02010201076F020101517DECB1
:1016800008F0FA0E020102010C6F000E02010D6F4C
:1016900076EC0EF012000201096F000E0201020149
:1016A000066F020109510201020104AF5AEF0BF06B
:1016B0005CEF0BF06BEF0BF002010201036D020116
:1016C000041FD8B0042B0201096F010E02010201B0
:1016D000066F020109510201020102AF72EF0BF025
:1016E00074EF0BF07FEF0BF002010201016D0201BC
:1016F000021FD8B0022B010E02010201061B000ED0
:1017000002010201076F000E0201086F02010201CF
:1017100004510311D8B48FEF0BF091EF0BF0E0EF11
:101720000BF00201096F010E02010201056F0201B7
:101730000951A4EF0BF00201D89002010337020116
:10174000043702010201052B0201020104AFABEFD5
:101750000BF0ADEF0BF09BEF0BF00201D890020104
:101760000737020108370201020103510201020199
:10177000015D020102010451020102010259D8A0D7
:10178000C4EF0BF0C6EF0BF0D5EF0BF00201020136
:10179000035102010201015F020102010451020131
:1017A0000201025B0201020107810201D8900201DD
:1017B00004330201033302010201052FADEF0BF0E8
:1017C000020102010651D8B4E8EF0BF0EAEF0BF08A
:1017D000F1EF0BF002010201076D0201081FD8B002
:1017E000082B07C201F208C202F2F7EF0BF0120059
:1017F0000101310E02010201036F0101010E02011C
:10180000046F0201016F000E02010201026F02016A
:101810000151E9EC0DF00101390E02010201036FE3
:101820000101010E0201046F0201016F010E0201AC
:101830000201026F02010151E9EC0DF00101410EBC
:1018400002010201036F0101010E0201046F020196
:10185000016F020E02010201026F02010151E9EC67
:101860000DF00101490E02010201036F0101010E99
:101870000201046F0201016F030E02010201026FF7
:1018800002010151E9EC0DF00101510E02010201CA
:10189000036F0101010E0201046F0201016F040ECA
:1018A00002010201026F02010151E9EC0DF0010198
:1018B000590E02010201036F0101010E0201046FC2
:1018C0000201016F050E02010201026F02010151C6
:1018D000E9EC0DF00101610E02010201036F01014B
:1018E000010E0201046F0201016F060E02010201E6
:1018F000026F02010151E9EC0DF00101690E0201D4
:101900000201036F0101010E0201046F0201016F68
:10191000070E02010201026F02010151E9EC0DF014
:1019200012000201006F000E9B6E02010051630E57
:10193000D36EC10E926E070E946E000E966E939E3D
:101940009596959495929580939093929598959A63
:10195000959C959E0BEC0FF083EC0AF0F8EC0BF0E5
:10196000000E00010001BA6F800E00010001BB6F84
:101970003E0E00010001BC6FD4EC0EF072EC0FF0D3
:101980008CEC0FF0F0EC0EF00201006F000E000185
:101990000001A56F020100510201006F000E00015D
:1019A0000001A66F0201005133EC0EF00201006F3E
:1019B000000E00010001A46F0201005100010001AE
:1019C000A451D8B4E6EF0CF0E8EF0CF007EF0DF0FF
:1019D000F2980201006F800E02010201036F020102
:1019E0000051000E02010201016F000E0201026FA0
:1019F00082EC0DF00201006F000E00010001A46FE7
:101A00000201005190EC0FF091EC0FF0F288DEEF44
:101A10000CF00CEF00F00600EACF14F2E1CF15F263
:101A2000E2CF16F2D9CF17F2DACF18F2F3CF19F2CC
:101A3000F4CF1AF2F6CF1BF2F7CF1CF2F8CF1DF25B
:101A4000F5CF1EF2F2AA27EF0DF029EF0DF031EFDE
:101A50000DF0F2A42EEF0DF030EF0DF031EF0DF0A0
:101A6000F2949EA036EF0DF038EF0DF04EEF0DF032
:101A70009DA03DEF0DF03FEF0DF04EEF0DF09E906D
:101A8000000ED66E000ED76ECD90000ECE6E000EFC
:101A9000CF6ECD80000ED66E000ED76EF2A853EF3B
:101AA0000DF055EF0DF065EF0DF0F2A25AEF0DF0CD
:101AB0005CEF0DF065EF0DF0F2920201106F010E78
:101AC00000010001A46F020110511EC2F5FF1DC2EA
:101AD000F8FF1CC2F7FF1BC2F6FF1AC2F4FF19C2BF
:101AE000F3FF18C2DAFF17C2D9FF16C2E2FF15C210
:101AF000E1FF14C2EAFF13C2E9FF12C2FBFF11C2E9
:101B0000FAFF11000201056F000E02010201066FCB
:101B100002010551B2EC0EF00201056F700E0201D8
:101B20000201066F0201055123EC0FF001C206F21B
:101B300023EC0FF00201056F010E02010201066F96
:101B400002010551B2EC0EF00201056F710E0201A7
:101B50000201066F0201055123EC0FF00201056F2F
:101B6000000E02010201046F02010551CDEF0DF0DC
:101B70000201020104510201020101250201056F67
:101B8000000E02010525E96EEA6A000EEA2262EC07
:101B90000FF0EF6E02010201042B0201020103515A
:101BA00002010201045DD8A0D8EF0DF0DAEF0DF0CC
:101BB000B8EF0DF00201056F010E02010201066F80
:101BC000020105513AEC0FF081EC0FF0E8EF0DF057
:101BD0001200080E020102010261F1EF0DF0F3EFB5
:101BE0000DF032EF0EF0020102010251080DF35028
:101BF000400F02010201076F7DEC08F00201066F41
:101C0000000E02010201056F02010651070E0201DA
:101C1000020105650EEF0EF010EF0EF012EF0EF060
:101C200032EF0EF00201020105510201020103250B
:101C3000E96E0201000E020102010421EA6EEF507A
:101C400002010201076F80EC09F002010201052B7D
:101C5000070E02010201056530EF0EF032EF0EF0C3
:101C600012EF0EF0120000010201A5C003F2020102
:101C70000201046B640E02010201016F000E0201F9
:101C8000026F4BEC0BF001C203F202C204F2FA0E37
:101C900002010201016F000E0201026F4BEC0BF01A
:101CA000020102010151BE6E00010201A6C003F251
:101CB00002010201046B640E02010201016F000EB9
:101CC0000201026F4BEC0BF001C203F202C204F2FC
:101CD000FA0E02010201016F000E0201026F4BECCD
:101CE0000BF0020102010151BB6E1200A6EF0EF0D3
:101CF000020102010C07D8A00D07000E020102012B
:101D00000E6F000E02010F6F320E020102010E5D16
:101D1000000E02010F59D8A090EF0EF092EF0EF0D6
:101D200094EF0EF0A6EF0EF0020102010E4B0F2B06
:101D3000320E020102010E5D000E02010F59D8A001
:101D4000A4EF0EF0A6EF0EF094EF0EF002010201E8
:101D50000D510C11D8A4AFEF0EF0B1EF0EF078EFEB
:101D60000EF012004FEC0FF0020102010667BBEF0C
:101D70000EF0BDEF0EF0C9EF0EF0C580C0EF0EF013
:101D8000C5B0C5EF0EF0C7EF0EF0C0EF0EF0D3EF09
:101D90000EF0C582CCEF0EF0C5B2D1EF0EF0D3EF4E
:101DA0000EF0CCEF0EF01200000EC26E0201016FB9
:101DB0000E0EC16E020101510201016FA80EC06E2C
:101DC000020101519E9C9D8CF28E050E02010201C2
:101DD0000C6F000E02010D6F76EC0EF0C282120045
:101DE0000C0EBD6E0C0EBA6E949494920201016FAB
:101DF000040ECA6E020101510201016FF90ECB6E91
:101E000002010151190EBE6E190EBB6E000EBE6EA0
:101E1000000EBB6E1200948E949CAC84B896AC9865
:101E2000AC9CAC8A9D98B898AB8EAB9C0201016FBC
:101E30000C0EAF6E020101510201016F000EB06E77
:101E400002010151120006C2C9FFC6AE2AEF0FF00F
:101E50002CEF0FF02EEF0FF039EF0FF030EF0FF007
:101E6000C7B035EF0FF037EF0FF030EF0FF04FEC5A
:101E70000FF012000201020106A101D0C58A020181
:101E8000020106B101D0C59AC58847EF0FF0C5B869
:101E90004CEF0FF04EEF0FF047EF0FF0120051EF45
:101EA0000FF0C5501F0BD8A458EF0FF05AEF0FF0EA
:101EB00051EF0FF0C7B45FEF0FF061EF0FF051EF8C
:101EC0000FF012004FEC0FF0C58667EF0FF0C7A0C0
:101ED0006CEF0FF06EEF0FF067EF0FF0C95071EF7E
:101EE0000FF0120094869488C00EC712C686C58E65
:101EF0000201016F090EC86E02010151C68A9E9649
:101F00001200C58484EF0FF0C5B489EF0FF08BEF9A
:101F10000FF084EF0FF01200F292F288F18C1200B1
:041F20001200120099
:020000040030CA
:0E000000FF38F9FEFF79BEFFFFFFFFFFFFBFD5
:00000001FF
