:020000040000fa
:080000000001040000000000f3
:020000040000fa
:100200006fa220000ebf20000e0188000000000039
:100210000c000700c095200001002000110007001d
:10022000000020000000e000020032000000020098
:1002300000000000e40d0200000000000040da00b1
:100240000000fe004440a900c01520000000e000ae
:100250000300320000002000a00188004440a800f4
:100260000000060091018800800078000000eb008b
:1002700015003700e280400032a0b4009101ba00be
:10028000e280400032a0b4009102ba00e280400057
:1002900032a0b4000002eb00472bde00f507b200ed
:1002a000602ce10004003a000059eb008301e900f2
:1002b000fdff3e00040037006128e100010032002c
:1002c0000082eb00040007001101ba000200e00008
:1002d000e8ff3a00000006003159ba008301e90046
:1002e0000c0032002159ba008301e90008003200f5
:1002f0000400e00003003a00e280400032a0b400b5
:10030000f5ff370011d9ba008301e900faff3a007e
:100310008100e800e180400032a0b4000000060047
:10032000889fbe008a9fbe008c9fbe008e1f7800f3
:100330004400f800070f2000270288003400f8006e
:10034000811f78000f07780007f02f000338e100c5
:1003500004003200270280004700b3002702880013
:10036000a301880019002000804cdd00130020004c
:1003700002047800800678008904d100424edd0036
:10038000010578000302e90004800800170000005e
:100390008a0546004218dd000902e90004800800d1
:1003a00010000000000000004620c3003b02520085
:1003b000df35c100080440001381c200ab82520047
:1003c000264dc5003e85c400bb00cd00bb80cd00de
:1003d0003a00ca002a80ca000700c9000580c90087
:1003e000ba00cd00ba80cd000a05460002047800ac
:1003f0008301d0008d06e900dfff3c008e07780006
:100400004f0078003400f9004400f9004f077800ed
:100410004f06be004f05be004f04be0000000600a0
:100420004600f8005000f800022020003202880048
:1004300002002800130020008019dd0002817100f5
:100440008202880001007800010178002600200067
:10045000470020008301e900038008000700000036
:100460000110e100040034001102be00920878007f
:10047000e2307b000489be008780400012197800ba
:100480005000f9004600f90000000600821f7800c5
:10049000849fbe008a1f78004400f800040f2000eb
:1004a00024028800010578000601c3000080e900ed
:1004b0000080080003000000000000000505f000b7
:1004c0000401f1003200cd000505f0001001f1003b
:1004d0003200cd004400f9004f0578004f02be0005
:1004e0004f007800000006000200fa00004f78007c
:1004f000f0508000800040002090200000804000ec
:100500001000780010108800f05080000000e80013
:10051000f0508800f1508000f0072000808f5000dc
:10052000050034000000eb00f0508800dd02a90057
:1005300010c0b30002eab7000782a8000080fa00ea
:10054000000006000400fa00000f78001107980070
:100550001e009000201088001e00780030108800d7
:100560000080fa00000006000c00fa003007980036
:10057000410798000000eb00200798000000eb0006
:100580001007980000108000004f780008c2a900f2
:10059000290037009e0090004e009000808f500090
:1005a000040031001e0090000000e80010079800d1
:1005b000030037002e0090005007980024003700f9
:1005c000910007000004e000f2ff32000000eb00a1
:1005d0001007980000108000804078003e009000d6
:1005e000014878003e0090000000e80030079800c5
:1005f0002e0090000000e8002007980006a2a90045
:100600000682a80006c2bf00704060000004e0003f
:10061000fcff3a0006c2bf000044b2000004e00044
:100620000500320007c2bf00704060000004e00017
:1006300001003a000782a80008c2bf0070406000b5
:100640000004e000deff32002e009000500798000a
:100650005e0090000080fa00000006000200fa0030
:10066000000f780006c2a8000c0037001e007800ba
:10067000104078001e0fe8009bff070008c2bf0073
:10068000614060000004e000fcff3a0085c0bf004c
:100690000042b2000004e000fcff32001e007800bf
:1006a000104078000004e000f0ff3a000000eb008a
:1006b0000080fa00000006000000fa0008c2bf0037
:1006c000624060000004e000fcff320008c2a900a4
:1006d000001080000080fb000080fa00000006008f
:1006e0000000fa000602a8000080fa0000000600e0
:1006f0000000fa000642a8000080fa000000060090
:100700000000fa0006a2a9000682a8000080fa00f4
:10071000000006000000fa0007e2a9008da0a90071
:100720008dc0a90085a0a90085c0a9000080fa009d
:10073000000006000200fa00000f780085a0a90062
:1007400085c0a9001e007800674060006740600017
:1007500067406000674060004401dd00a10920009f
:1007600091407800f0c8b30000c060000240700003
:100770009ae0b700000720001e0060004400de0081
:100780006740600067416000b10920009140780037
:1007900080cfb30000c06000024070009be0b70053
:1007a0009e007800688060004300de0061406000c9
:1007b000614060004501dd00d108200091407800d3
:1007c000f0cdb30000c06000024070008de0b700c3
:1007d000000820001e0060004700de00614060004d
:1007e000614060004601dd00d108200091407800a2
:1007f000f0cbb30000c06000024070008de0b70095
:100800000080fa00000006000000fa0008c2bf00e5
:100810000080fb000000d100614060000080fb0010
:100820000080fa00000006000000fa000000370017
:1008300006c2bf00614060000004e000fcff3a0017
:1008400006c2bf00644060000004e000f8ff3a0008
:1008500006c2bf00684060000004e000f4ff3a00f8
:1008600006c2bf00704060000004e000f0ff3a00e4
:1008700009c2bf000044b2000004e000ecff3a00ef
:100880000080fa000000060003f0a200889fbe006e
:100890008a9fbe008c1f78003d0107004401330091
:1008a0006450e1004f0032006420e1005200320049
:1008b00003826c0007003b000905d0000306d0004e
:1008c000820f54000c065d00020039000200320065
:1008d00089017800030678008582550004003d00f8
:1008e0000003fd008103fd008502ea008b854200c4
:1008f000840f720002003b0060001000e0801800ce
:100900006011b8000005eb007a28e1000a00390008
:1009100006007800c75ddd00f707b200878075002c
:100920002d003700828171000a01780061056000a6
:100930008180d1000080d3008502e900f9ff3b00ef
:10094000060440008784480002003b006004140055
:10095000e0841c000988a300070032008a8171002e
:1009600082817100610164008904d1000884d30090
:100970008b05e800170037000978a30013003a0040
:100980000b00e000130034008b05e900080444006c
:1009900089844c000a4474000978a3000d003a00d1
:1009a0000b00e000070034008b05e9000804440058
:1009b00089844c0001003a000b0020000978a30054
:1009c000f7ff32000001eb00020037008281710066
:1009d0000a017800b30007000cf0a70001f0a000a6
:1009e000fc0037006420e10002003a00838f6c00b5
:1009f000fc0033000801be000200be00f500370015
:100a0000889fbe008a9fbe008c1f7800e000070010
:100a1000e700330003866c006450e1002e003200d2
:100a20006420e100330032006150e1002f00320009
:100a30006120e1003100320085855500eb07b000f0
:100a400009002000080420000500370008044400c5
:100a500089844c000a0031000603430087834b0061
:100a60000001530081815b00f8ff33000203be00e8
:100a70000800a0000804440089844c00f6ff3900f7
:100a8000c639dd008301730001003200130020002d
:100a90008904d1000884d3000998a300050032001e
:100aa0000800a7000300a0008904d1000884d30037
:100ab0008b05e8008904d1000884d3000001eb0015
:100ac0000281d2007700070001f0a1000cf0a7001e
:100ad00001f0a000bf0037006420e100c100320037
:100ae0000801be000200be00f7ff37006120e100f0
:100af000bc0032006000b800f3ff370000002000a7
:100b000001f82700f0ff37000001be008b0007004e
:100b10000470a70003f0a1006509b10016003200bf
:100b20000d0035006828e10006003500f0ff2f00b9
:100b3000f1ff27000300e00013003b000100280044
:100b40000000050000004000818048008502e900a7
:100b5000fcff3a0008003700f88f420002003c001a
:100b60008000eb00000005008100d1000080d30070
:100b70008502e800fcff3a000300e00002003b00b1
:100b800060001000e0801800000006000001be00b8
:100b90006a0007000470a70003f0a10003f8a30097
:100ba00013003a006509b100100032000900350059
:100bb0006928e1000200350001002800000005005e
:100bc00000004000818048008502e900fcff3a00f7
:100bd00000000600f88f4200050035008100d100ba
:100be0000080d3008502e800fcff3a000000060008
:100bf0008000eb0000000500889fbe008a9fbe00b9
:100c0000010578000100e0000400350008003c0008
:100c10000000e000200032000500370060001000f6
:100c2000e080180002003b0001f02c001a003700a1
:100c30000004be006011b8006b0920000982cf00db
:100c4000020039000882cf000441b000694252001e
:100c50000e00320008003b008281710061016400d7
:100c60008904d1000884d3008b05e8000442e80021
:100c7000f9ff3a00050037000804440089844c005d
:100c80008b05e9000442e900fbff3a00050007007c
:100c90000af0a70001f0a0004f05be004f04be00ff
:100ca0000000060081002000618055000b003d001f
:100cb0000b00200061fe2f000100e1001d00340048
:100cc00082817100610164008904d1000884d3002d
:100cd0000000e800faff3a007100200061006400a3
:100ce000030070000200600009003200610444004b
:100cf000e0844c000988a500050032008b05e8005f
:100d00006808e10002003a008904d1000884d30099
:100d1000f20f20000258e10005003d00c75ddd0034
:100d2000f907b2008980750008007800000006000d
:100d30000bf827008b00780000000500c70ade00d2
:100d4000f107b200f50fb20008003200e1cf420017
:100d5000020032000170a00024000500810f700025
:100d6000010032000408050044000500810f7000f6
:100d700002003a00140005008502e900000040006e
:100d800081c04800fcff3b000170a000240005006a
:100d90000004be00e9ff07000003be000405be001a
:100da0000200be00e5ff0700844f7500000006004a
:100db0000200be006450e100050036006420e1003e
:100dc000020036000968a30001003a000800be00d6
:100dd0000160a0004f0678004f05be004f04be0022
:100de00000000600f0ff2f00f1ff2700f9ff370099
:100df000889fbe008a9fbe008c1f7800e4ff07001a
:100e0000ebff330003866c006450e10024003200e5
:100e10006420e100270032006150e100220032002e
:100e20006120e100210032008b854200eb07b10018
:100e30000134b800003ab8000804420089844a002e
:100e4000013ab8000030b8008880400009014a002b
:100e50000400330000004000818048000201490086
:100e60008b05e900c909dd00830170000100320033
:100e700013002000c814de004814dd004709de001e
:100e80001200b200c808de000884700085ff070069
:100e900001f0a1000cf0a70001f0a000cdff370089
:100ea0006120e100cfff32000801be000200be0059
:100eb000f7ff37006150e100fcff3a00c9ff37003f
:020000040000fa
:0200000401f009
:04000000f6bf000047
:020000040000fa
:0200000401f009
:04000400ff7f00007a
:020000040000fa
:0200000401f009
:04000800fcff0000f9
:020000040000fa
:0200000401f009
:04001400ffff0000ea
:020000040000fa
:1000080000110000001100000011000000110000a4
:100018000011000000110000001100000011000094
:100028000011000000110000001100000011000084
:100038000011000000110000001100000011000074
:100048000011000000110000001100006e0f0000f8
:10005800001100006a110000621100000011000088
:100068000011000000110000001100000011000044
:100078000011000000110000001100000011000034
:100088000011000000110000001100000011000024
:100098000011000000110000001100000011000014
:1000a8000011000000110000001100000011000004
:1000b80000110000001100000011000000110000f4
:1000c80000110000001100000011000000110000e4
:1000d80000110000001100000011000000110000d4
:1000e80000110000001100000011000000110000c4
:0800f8000011000000110000de
:020000040000fa
:1001080000110000001100000011000000110000a3
:100118000011000000110000001100000011000093
:100128000011000000110000001100000011000083
:100138000011000000110000001100000011000073
:100148000011000000110000001100006e0f0000f7
:10015800001100006a110000621100000011000087
:100168000011000000110000001100000011000043
:100178000011000000110000001100000011000033
:100188000011000000110000001100000011000023
:100198000011000000110000001100000011000013
:1001a8000011000000110000001100000011000003
:1001b80000110000001100000011000000110000f3
:1001c80000110000001100000011000000110000e3
:1001d80000110000001100000011000000110000d3
:1001e80000110000001100000011000000110000c3
:0801f8000011000000110000dd
:020000040000fa
:10100000ff7f000000000000d97f0000b8f9000059
:10101000627f000074f300009d7e000038ed000048
:101020008a7d000007e700002a7c0000e6e000005f
:101030007d7a0000d8da000085780000e1d4000055
:101040004276000004cf0000b673000046c90000dd
:10105000e3700000a9c30000ca6d000032be0000aa
:101060006e6a0000e3b80000d0660000c0b3000064
:10107000f2620000ccae0000d75e00000aaa0000b9
:10108000825a00007ea50000f655000029a100004c
:10109000345100000e9d0000404c000030990000cb
:1010a0001d47000092950000ce41000036920000de
:1010b000573c00001d8f0000ba3600004a8c00002b
:1010c000fc300000be8900001f2b00007b87000061
:1010d00028250000838500001a1f0000d683000029
:1010e000f918000076820000c81200006381000039
:1010f0008c0c00009e800000480600002780000045
:101100000000000000800000b8f900002780000007
:1011100074f300009e80000038ed00006381000041
:1011200007e7000076820000e6e00000d6830000ba
:10113000d8da000083850000e1d400007c8700003d
:1011400004cf0000be89000046c900004a8c0000a0
:10115000a9c300001d8f000032be000036920000bf
:10116000e3b8000092950000c0b300003199000080
:10117000ccae00000e9d00000aaa000029a10000cc
:101180007ea500007ea5000029a100000aaa00009b
:101190000e9d0000ccae000031990000c0b30000ed
:1011a00092950000e3b800003692000032be0000c5
:1011b0001d8f0000a9c300004a8c000046c9000032
:1011c000be89000004cf00007c870000e1d400004d
:1011d00083850000d8da0000d6830000e6e0000036
:1011e0007682000007e700006381000038ed000010
:1011f0009e80000074f3000027800000b8f9000012
:101200004163000074750000616c00002050000014
:10121000656100006b2000004672000065710000ef
:101220003a200000090000000900000046460000c6
:10123000542000005761000076650000666f0000d2
:10124000726d000020560000414c0000530a00005f
:101250000d0000000a000000464600005420000077
:10126000564100004c530000204400004f4e000047
:10127000450a00000d00000050650000616b000091
:1012800020460000726500007120000062790000b5
:1012900020460000465400003a20000009000000eb
:1012a0000a0d000000000000303000003030000067
:0812b000303000003030000076
:020000040000fa
:1012b800000800000201000000000000000c00000f
:1012c8000002000002000000000000000000000012
:1012d8000000000000000000000000000000000006
:1012e80000000000000000000000000000000000f6
:1012f80000000000000000000000000000000000e6
:1013080000000000000000000000000000000000d5
:1015780000000000000e0000000200000200000051
:10158800ff7fff007fff7f00ff7fff007f0180005c
:1015980001800100800180000180ff007fff7f0043
:1015a800ff7fff007fff7f00018001008001800036
:1015b8000180010080ff7f00ff7fff007fff7f0029
:1015c800ff7f010080018000018001008001800010
:1015d800ff7fff007fff7f00ff7fff007f0180000c
:1015e80001800100800180000180ff007fff7f00f3
:1015f800ff7fff007fff7f000180010080018000e6
:101608000180010080ff7f00ff7fff007fff7f00d8
:10161800ff7f0100800180000180010080018000bf
:10162800ff7fff007fff7f00ff7fff007f018000bb
:1016380001800100800180000180ff007fff7f00a2
:10164800ff7fff007fff7f00018001008001800095
:101658000180010080ff7f00ff7fff007fff7f0088
:10166800ff7f01008001800001800100800180006f
:10167800ff7fff007fff7f00ff7fff007f0180006b
:1016880001800100800180000180ff007fff7f0052
:10169800ff7fff007fff7f00018001008001800045
:1016a8000180010080ff7f00ff7fff007fff7f0038
:1016b800ff7f01008001800001800100800180001f
:1016c800ff7fff007fff7f00ff7fff007f0180001b
:1016d80001800100800180000180ff007fff7f0002
:1016e800ff7fff007fff7f000180010080018000f5
:1016f8000180010080ff7f00ff7fff007fff7f00e8
:10170800ff7f0100800180000180010080018000ce
:10171800ff7fff007fff7f00ff7fff007f018000ca
:1017280001800100800180000180ff007fff7f00b1
:10173800ff7fff007fff7f000180010080018000a4
:101748000180010080ff7f00ff7fff007fff7f0097
:10175800ff7f01008001800001800100800180007e
:10176800ff7fff007fff7f00ff7fff007f0180007a
:1017780001800100800180000180ff007fff7f0061
:10178800ff7fff007fff7f00018001008001800054
:101798000180010080ff7f00ff7fff007fff7f0047
:1017a800ff7f01008001800001800100800180002e
:1017b800ff7fff007fff7f00ff7fff007f0180002a
:1017c80001800100800180000180ff007fff7f0011
:1017d800ff7fff007fff7f00018001008001800004
:1017e8000180010080ff7f00ff7fff007fff7f00f7
:1017f800ff7f0100800180000180010080018000de
:10180800ff7fff007fff7f00ff7fff007f018000d9
:1018180001800100800180000180ff007fff7f00c0
:10182800ff7fff007fff7f0001800000200a00008b
:101838000600000002000000000000000000000098
:10184800020900000201000000000000040a000074
:0c1858001c000000000000000000000068
:020000040000fa
:101864000400fa00100798000a0037001e009000d8
:101874000000e900100798000000eb00000f78005a
:10188400010037001e0fe800703e20009e0f10007c
:10189400fcff36001e0090000000e000f3ff3a0059
:1018a4000080fa00000006000000fa00f01f20008b
:1018b4003016880000000000d00020009016880038
:1018c4000000000000012000f01688000000000065
:1018d4000000eb00c01688000000000000c02000db
:1018e400601688000000000000ff2f0040158800eb
:1018f4000080fa00000006002000fa00889fbe0065
:1019040010002000700f98007e089000600f98006f
:101914007e0890008000400020902000008040005d
:1019240090007800510f980020002000700f98005c
:10193400130037007e0890008000400020902000b3
:1019440000804000900078005e089000808f500076
:10195400080034007e0890008000400020902000a1
:101964000080400090007800510f98007e0890009d
:10197400600f98007e0890000000e800700f980047
:10198400fe089000f0072000808f5000e9ff34002b
:101994006e0890000000e8008000400020902000c5
:1019a40000804000100178006e0890000000e900fb
:1019b400800040002090200000804000100078004b
:1019c400800f51001e0034006e0890000000e800f3
:1019d400800040002090200000804000100078002b
:1019e400cf80de0083fc070070079800010f980089
:1019f4006e0890000000e800cf80de007dfc070048
:101a040002002400c3312400f8fc070010079800ea
:101a1400210798006e0890000000e9008000400053
:101a2400209020000080400010007800cf80de006d
:101a340070fc0700300f9800410f98001d0037001c
:101a44006e0890000000e800800040002090200014
:101a54000080400010007800cf80de0065fc0700a5
:101a6400300f9800410f98006e0890000000e900c4
:101a7400cf80de005ffc070002002400c331240095
:101a8400dafc070010079800210798006e08900000
:101a94000000e90080004000209020000080400009
:101aa40010007800cf80de0052fc07007007980019
:101ab400010f98006e0890008000400020902000e4
:101ac4000080400010007800cf80de0049fc070051
:101ad400100f9800210f98006e089000cf80de0050
:101ae40044fc070002002400c3312400bffc0700ab
:101af40030079800410798007e0190008e099000fd
:101b04003e089000ce0890005efb07000004be0073
:101b14001e099000ae0990003e089000ce08900087
:101b240058fb07000001be000800be00b3fb07001d
:101b340050079800610798003e019000ce01900084
:101b44001e009000ae0090004efb07000001be0096
:101b54005e009000ee009000a4fc0700500798007f
:101b6400610798003e009000ce0090000001be0086
:101b740045fb07005e019000ee01900042fb070068
:101b8400e0fb0700000f78001e0078002200200010
:101b9400110009000200d800000f7800009028000e
:101ba400570207001e0078006202070040912800d7
:101bb400530207006e0890004f04be000080fa0034
:101bc400000006000600fa000000eb002007980061
:101bd4000000eb001007980033ff0700000000002e
:101be40000000000300207000000000000000000b8
:101bf40000000000000000000000000000000000e1
:101c0400dd02a9000040eb0000e9b7006e00070008
:101c14008d60a900710107008d60a800a1e2a800f1
:101c240010072000030207000000eb00f0508800ba
:101c34000040eb0002eab7000000370001c9bf0012
:101c4400e14f5000fdff3a000000eb002007980030
:101c540014003700ae0190002e0090008000400078
:101c6400008020000080400010017800c218dd00d0
:101c740000c0200000804000020878002e00900080
:101c84004200dd008080e80000c020008080400029
:101c94000000eb00800878002e0090000000e800af
:101ca40020079800ae009000f0072000808f5000bd
:101cb400e8ff360000002000800078000080280043
:101cc400000178008101780001c02000700020002c
:101cd40092f9070001c0200070002000cff907002e
:101ce4002290200001c0200000082000e6f907002f
:101cf40060912800020207000000eb00000f78004a
:101d0400090037001e007800800040002090200069
:101d1400008040001000780006020700a09228000e
:101d2400f70107001e0fe800000820009e0f1000b6
:101d3400f4ff36000000eb00f0508800dd02a8003c
:101d440002cabf000004e000fdff3200c092280078
:101d5400eb010700e8fe07000051880000518000f5
:101d6400cf80de00a3fb070002002400c33124005f
:101d74001efc070084fb07001051880021518800d5
:101d8400c0932800de01070010518000215180001b
:101d9400e801070000952800d90107000040eb0086
:101da40002eab7000040eb0001e9b7000040eb0095
:101db40000e9b7008d60a800a1e2a8000000eb00d4
:101dc400100798009dff37000000fa000040eb0068
:101dd40000e9b7000a00370000c9bf000080fb001b
:101de4008000400000802000808040000000eb0064
:101df4008008780000c9bf000040e80000e9b7008f
:101e040000c9bf000004e000f3ff3d000040eb0008
:101e140000e9b7000040eb0001e9b700a1c2bf0030
:101e24003040b300a1e2b700a0c2bf007f40600011
:101e340001c4b30001407000a0e2b700a042a800b2
:101e4400a062a900212a200091407800c0c3b300f9
:101e540000c07000a2e2b700312a2000914078004f
:101e6400c0cfb30000c06000a3e2b700312a200055
:101e74009140780000ceb30000c07000a3e2b70028
:101e8400512a20009140780000ceb30000c06000c9
:101e94000014a000a5e2b700412a20009140780078
:101ea40000ccb30000c06000a040b300a4e2b700bf
:101eb40020002000301588000000eb005015880039
:101ec4000080eb0040158800a842a9008560a900a5
:101ed4000080fa0000000600809fbe00821f780088
:101ee4000000fa0000c9bf008080fb0000148000dd
:101ef40000017800818040000080200000804000c4
:101f04000208780000c9bf000040e80000e9b700fb
:101f140000c9bf008080fb0010148000000178001d
:101f2400818040000080200000804000020878008a
:101f340000c9bf000040e80000e9b70000c9bf00c5
:101f44008080fb0020148000000178008180400024
:101f540000802000008040000208780000c9bf0013
:101f64000040e80000e9b70000c9bf008080fb0022
:101f7400301480000001780081804000008020003f
:101f8400008040000208780000c9bf000040e8005b
:101f940000e9b70000c9bf008080fb004014800046
:101fa4000001780081804000008020000080400013
:101fb4000208780000c9bf000040e80000e9b7004b
:101fc40000c9bf008080fb0050148000000178002d
:101fd40081804000008020000080400002087800da
:101fe40000c9bf000040e80000e9b70000c9bf0015
:101ff4008080fb0060148000000178008180400034
:1020040000802000008040000208780000c9bf0062
:102014000040e80000e9b70000c9bf008080fb0071
:10202400701480000001780081804000008020004e
:10203400008040000208780000c9bf000040e800aa
:1020440000e9b70000c9bf008080fb008014800055
:102054000001780081804000008020000080400062
:102064000208780000c9bf000040e80000e9b7009a
:1020740000c9bf008080fb0090148000000178003c
:102084008180400000802000008040000208780029
:1020940000c9bf000040e80000e9b70000c9bf0064
:1020a4008080fb00a0148000000178008180400043
:1020b40000802000008040000208780000c9bf00b2
:1020c4000040e80000e9b70000c9bf008080fb00c1
:1020d400b01480000001780081804000008020005e
:1020e400008040000208780000c9bf000040e800fa
:1020f40000e9b70000c9bf008080fb00c014800065
:1021040000017800818040000080200000804000b1
:102114000208780000c9bf000040e80000e9b700e9
:1021240000c9bf008080fb00d0148000000178004b
:102134008180400000802000008040000208780078
:1021440000c9bf000040e80000e9b70000c9bf00b3
:102154008080fb00e0148000000178008180400052
:1021640000802000008040000208780000c9bf0001
:102174000040e80000e9b70000c9bf008080fb0010
:10218400f01480000001780081804000008020006d
:10219400008040000208780000c9bf000040e80049
:1021a40000e9b70000c9bf000004e00006003d00dc
:1021b4008d60a900a1e2a9000040eb0000e9b7008e
:1021c40010c0b30001e9b7008560a9000080fa00df
:1021d4004f0178004f00be00004006000000fa00e6
:1021e4000000eb0090088800002e20007008880092
:1021f40013e1a8000080fa00000006000000fa00c5
:10220400ffff37000800fa00000f78001e00780076
:10221400cf80de0077fa0700b2472100630824006c
:1022240098f907000200200003102400effa0700c9
:1022340062662600635e2400ecfa070002002000b8
:1022440003262400edf907000200200003f0230018
:102254008df907002bfa07002050880031508800c0
:1022640020508000315080002007980031079800ea
:102274008040eb00214798002e019000be019000a1
:10228400e00f5100e08f59000200340013c0b30086
:10229400234798002e019000be0190006100510078
:1022a400e08059002050880031508800ae419000f1
:1022b4000304e000eaff3a000080fa000000060090
:1022c4000000fa0085c0a9000080fa000040060062
:1022d4003600f800809fbe00829fbe00849fbe002f
:1022e400869fbe000200fa0008c2bf006140600081
:1022f4000041780008c2bf000080fb004500de00fa
:10230400614060000080fb00000040008000780015
:1023140008c2bf000080fb004200de006140600094
:102324000080fb0000804000000040008000780036
:1023340008c2bf000080fb000000d10061406000c3
:102344000080fb000080400000004000004041008d
:1023540009eab70009cabf00ea4f50001a003a0060
:10236400d4f80700004f78000ccabf000004e00056
:1023740005003a001e4078000aeab70010c0b30016
:102384000ceab700220037000ccabf00e14f50002e
:102394001f003a001e4078000beab7000acabf00cb
:1023a4000080fb00ef006000b2a020001241780022
:1023b400e0a02000008040000248780010c0b30074
:1023c40008eab7001200370009cabf00e24f500004
:1023d40005003a00b7f80700004f78000040eb0012
:1023e4000ceab7000a00370009cabf00e64f5000e4
:1023f40007003a000acabf000080fb00ef0060003b
:10240400e0a02000008040001040780035f807006c
:102414000782a80085a0a9000080fa004f03be002f
:102424004f02be004f01be004f00be003600f9004f
:10243400004006000600fa004047980060002000b3
:10244400000f780000062d00100798004e40900001
:102454000080fb00501088009e0078001e00900051
:1024640037f80700d0f72f00b1f80700edf80700a0
:10247400de42a800de62a8000040eb0008eab700d4
:102484000040eb000aeab7000040eb000beab7009b
:102494000040eb000ceab7000040eb000deab70087
:1024a4000080fa00000006000000fa00f00220009c
:1024b400f0108800c1108000c0ff2f000080600071
:1024c400c01088008f00a90017e2a8001942a800d4
:1024d4000080fa00000006000200fa00004f7800b5
:1024e40019c2bf00614060000004e000fcff32003c
:1024f4001e00fb00d01088000080fa0000000600d7
:102504000200fa00000f7800040037001e00780073
:1025140010407800f0ff07001e0fe8001e0078004e
:10252400104078000004e000f8ff3a000080fa0050
:10253400000006000c00fa00500798000e80e80026
:102544004195280007000900315878008000b10047
:1025540070002000000f78005e0090000000e00092
:1025640007003d00d0c2b300dbff0700de0090008f
:102574000080eb000088b90050079800160037006f
:10258400b0c2b300d4ff0700130037009e017800e7
:102594005e009000a2002000110009000200d80093
:1025a4008000fd0002c3b300824040000e80e800ba
:1025b40000804100014878005e009000a2002000e5
:1025c400110009000200d800500798001e0fe9000e
:1025d4001e00e000030032005e0090000000e000f6
:1025e400eaff3a000000eb00000f78000600370015
:1025f4009e0078000e80e8000080400010407800c3
:10260400b5ff07001e0fe800700020009e0f1000a9
:0c261400f7ff34000080fa000000060010
:00000001FF
